{
  "_format": "hh-sol-artifact-1",
  "contractName": "StartupPortal",
  "sourceName": "contracts/StartupPortal.sol",
  "abi": [
    {
      "inputs": [],
      "stateMutability": "payable",
      "type": "constructor"
    },
    {
      "anonymous": false,
      "inputs": [
        {
          "indexed": true,
          "internalType": "address",
          "name": "from",
          "type": "address"
        },
        {
          "indexed": false,
          "internalType": "uint256",
          "name": "timestamp",
          "type": "uint256"
        },
        {
          "indexed": false,
          "internalType": "string",
          "name": "message",
          "type": "string"
        },
        {
          "indexed": false,
          "internalType": "bool",
          "name": "winner",
          "type": "bool"
        }
      ],
      "name": "NewIdea",
      "type": "event"
    },
    {
      "inputs": [],
      "name": "getAllIdeas",
      "outputs": [
        {
          "components": [
            {
              "internalType": "address",
              "name": "entrepeneur",
              "type": "address"
            },
            {
              "internalType": "string",
              "name": "message",
              "type": "string"
            },
            {
              "internalType": "uint256",
              "name": "timestamp",
              "type": "uint256"
            },
            {
              "internalType": "bool",
              "name": "winner",
              "type": "bool"
            }
          ],
          "internalType": "struct StartupPortal.Idea[]",
          "name": "",
          "type": "tuple[]"
        }
      ],
      "stateMutability": "view",
      "type": "function"
    },
    {
      "inputs": [],
      "name": "getTotalIdeas",
      "outputs": [
        {
          "internalType": "uint256",
          "name": "",
          "type": "uint256"
        }
      ],
      "stateMutability": "view",
      "type": "function"
    },
    {
      "inputs": [
        {
          "internalType": "string",
          "name": "_message",
          "type": "string"
        }
      ],
      "name": "idea",
      "outputs": [],
      "stateMutability": "nonpayable",
      "type": "function"
    },
    {
      "inputs": [
        {
          "internalType": "address",
          "name": "",
          "type": "address"
        }
      ],
      "name": "lastSentAt",
      "outputs": [
        {
          "internalType": "uint256",
          "name": "",
          "type": "uint256"
        }
      ],
      "stateMutability": "view",
      "type": "function"
    }
  ],
  "bytecode": "0x6080604052620000336040518060600160405280602581526020016200163a602591396200003960201b620008201760201c565b620001cd565b620000d98160405160240162000050919062000146565b6040516020818303038152906040527f41304fac000000000000000000000000000000000000000000000000000000007bffffffffffffffffffffffffffffffffffffffffffffffffffffffff19166020820180517bffffffffffffffffffffffffffffffffffffffffffffffffffffffff8381831617835250505050620000dc60201b60201c565b50565b60008151905060006a636f6e736f6c652e6c6f679050602083016000808483855afa5050505050565b600062000112826200016a565b6200011e818562000175565b93506200013081856020860162000186565b6200013b81620001bc565b840191505092915050565b6000602082019050818103600083015262000162818462000105565b905092915050565b600081519050919050565b600082825260208201905092915050565b60005b83811015620001a657808201518184015260208101905062000189565b83811115620001b6576000848401525b50505050565b6000601f19601f8301169050919050565b61145d80620001dd6000396000f3fe608060405234801561001057600080fd5b506004361061004c5760003560e01c8063115a4bac146100515780631172a2c81461006f5780633a9e6af01461008b5780638826ff30146100a9575b600080fd5b6100596100d9565b6040516100669190610fe5565b60405180910390f35b61008960048036038101906100849190610c02565b610124565b005b61009361069c565b6040516100a09190610e9c565b60405180910390f35b6100c360048036038101906100be9190610bd9565b610808565b6040516100d09190610fe5565b60405180910390f35b600061011c6040518060400160405280601e81526020017f5765206861766520256420746f74616c207374617274757020696465617300008152506000546108b9565b600054905090565b42610258600360003373ffffffffffffffffffffffffffffffffffffffff1673ffffffffffffffffffffffffffffffffffffffff168152602001908152602001600020546101729190611105565b106101b2576040517f08c379a00000000000000000000000000000000000000000000000000000000081526004016101a990610fc5565b60405180910390fd5b42600360003373ffffffffffffffffffffffffffffffffffffffff1673ffffffffffffffffffffffffffffffffffffffff1681526020019081526020016000208190555060016000808282546102089190611105565b9250508190555061024f6040518060400160405280601381526020017f25732073656e74207468652069646561202573000000000000000000000000008152503383610955565b6000606460015442446102629190611105565b61026c9190611105565b6102769190611248565b90506102b76040518060400160405280601681526020017f52616e646f6d20232067656e6572617465643a20257300000000000000000000815250826108b9565b80600181905550603281101561054f576103066040518060400160405280600781526020017f257320776f6e2100000000000000000000000000000000000000000000000000815250336109f4565b6000655af3107a4000905047811115610354576040517f08c379a000000000000000000000000000000000000000000000000000000000815260040161034b90610f85565b60405180910390fd5b60003373ffffffffffffffffffffffffffffffffffffffff168260405161037a90610e87565b60006040518083038185875af1925050503d80600081146103b7576040519150601f19603f3d011682016040523d82523d6000602084013e6103bc565b606091505b5050905080610400576040517f08c379a00000000000000000000000000000000000000000000000000000000081526004016103f790610fa5565b60405180910390fd5b600260405180608001604052803373ffffffffffffffffffffffffffffffffffffffff16815260200186815260200142815260200160011515815250908060018154018082558091505060019003906000526020600020906004020160009091909190915060008201518160000160006101000a81548173ffffffffffffffffffffffffffffffffffffffff021916908373ffffffffffffffffffffffffffffffffffffffff16021790555060208201518160010190805190602001906104c8929190610ab9565b506040820151816002015560608201518160030160006101000a81548160ff02191690831515021790555050503373ffffffffffffffffffffffffffffffffffffffff167f1d5f212a9f402d5d12345f211d295f9a690458049925a9b47b5caabefed88dc84286600160405161054093929190611000565b60405180910390a25050610698565b600260405180608001604052803373ffffffffffffffffffffffffffffffffffffffff16815260200184815260200142815260200160001515815250908060018154018082558091505060019003906000526020600020906004020160009091909190915060008201518160000160006101000a81548173ffffffffffffffffffffffffffffffffffffffff021916908373ffffffffffffffffffffffffffffffffffffffff1602179055506020820151816001019080519060200190610617929190610ab9565b506040820151816002015560608201518160030160006101000a81548160ff02191690831515021790555050503373ffffffffffffffffffffffffffffffffffffffff167f1d5f212a9f402d5d12345f211d295f9a690458049925a9b47b5caabefed88dc84284600060405161068f93929190611000565b60405180910390a25b5050565b60606002805480602002602001604051908101604052809291908181526020016000905b828210156107ff57838290600052602060002090600402016040518060800160405290816000820160009054906101000a900473ffffffffffffffffffffffffffffffffffffffff1673ffffffffffffffffffffffffffffffffffffffff1673ffffffffffffffffffffffffffffffffffffffff168152602001600182018054610749906111e5565b80601f0160208091040260200160405190810160405280929190818152602001828054610775906111e5565b80156107c25780601f10610797576101008083540402835291602001916107c2565b820191906000526020600020905b8154815290600101906020018083116107a557829003601f168201915b50505050508152602001600282015481526020016003820160009054906101000a900460ff161515151581525050815260200190600101906106c0565b50505050905090565b60036020528060005260406000206000915090505481565b6108b6816040516024016108349190610ebe565b6040516020818303038152906040527f41304fac000000000000000000000000000000000000000000000000000000007bffffffffffffffffffffffffffffffffffffffffffffffffffffffff19166020820180517bffffffffffffffffffffffffffffffffffffffffffffffffffffffff8381831617835250505050610a90565b50565b61095182826040516024016108cf929190610f55565b6040516020818303038152906040527f9710a9d0000000000000000000000000000000000000000000000000000000007bffffffffffffffffffffffffffffffffffffffffffffffffffffffff19166020820180517bffffffffffffffffffffffffffffffffffffffffffffffffffffffff8381831617835250505050610a90565b5050565b6109ef83838360405160240161096d93929190610f10565b6040516020818303038152906040527fe0e9ad4f000000000000000000000000000000000000000000000000000000007bffffffffffffffffffffffffffffffffffffffffffffffffffffffff19166020820180517bffffffffffffffffffffffffffffffffffffffffffffffffffffffff8381831617835250505050610a90565b505050565b610a8c8282604051602401610a0a929190610ee0565b6040516020818303038152906040527f319af333000000000000000000000000000000000000000000000000000000007bffffffffffffffffffffffffffffffffffffffffffffffffffffffff19166020820180517bffffffffffffffffffffffffffffffffffffffffffffffffffffffff8381831617835250505050610a90565b5050565b60008151905060006a636f6e736f6c652e6c6f679050602083016000808483855afa5050505050565b828054610ac5906111e5565b90600052602060002090601f016020900481019282610ae75760008555610b2e565b82601f10610b0057805160ff1916838001178555610b2e565b82800160010185558215610b2e579182015b82811115610b2d578251825591602001919060010190610b12565b5b509050610b3b9190610b3f565b5090565b5b80821115610b58576000816000905550600101610b40565b5090565b6000610b6f610b6a84611063565b61103e565b905082815260208101848484011115610b8757600080fd5b610b928482856111a3565b509392505050565b600081359050610ba981611410565b92915050565b600082601f830112610bc057600080fd5b8135610bd0848260208601610b5c565b91505092915050565b600060208284031215610beb57600080fd5b6000610bf984828501610b9a565b91505092915050565b600060208284031215610c1457600080fd5b600082013567ffffffffffffffff811115610c2e57600080fd5b610c3a84828501610baf565b91505092915050565b6000610c4f8383610e06565b905092915050565b610c608161115b565b82525050565b610c6f8161115b565b82525050565b6000610c80826110a4565b610c8a81856110c7565b935083602082028501610c9c85611094565b8060005b85811015610cd85784840389528151610cb98582610c43565b9450610cc4836110ba565b925060208a01995050600181019050610ca0565b50829750879550505050505092915050565b610cf38161116d565b82525050565b610d028161116d565b82525050565b6000610d13826110af565b610d1d81856110e3565b9350610d2d8185602086016111b2565b610d3681611335565b840191505092915050565b6000610d4c826110af565b610d5681856110f4565b9350610d668185602086016111b2565b610d6f81611335565b840191505092915050565b6000610d876034836110f4565b9150610d9282611346565b604082019050919050565b6000610daa6027836110f4565b9150610db582611395565b604082019050919050565b6000610dcd6013836110f4565b9150610dd8826113e4565b602082019050919050565b6000610df06000836110d8565b9150610dfb8261140d565b600082019050919050565b6000608083016000830151610e1e6000860182610c57565b5060208301518482036020860152610e368282610d08565b9150506040830151610e4b6040860182610e69565b506060830151610e5e6060860182610cea565b508091505092915050565b610e7281611199565b82525050565b610e8181611199565b82525050565b6000610e9282610de3565b9150819050919050565b60006020820190508181036000830152610eb68184610c75565b905092915050565b60006020820190508181036000830152610ed88184610d41565b905092915050565b60006040820190508181036000830152610efa8185610d41565b9050610f096020830184610c66565b9392505050565b60006060820190508181036000830152610f2a8186610d41565b9050610f396020830185610c66565b8181036040830152610f4b8184610d41565b9050949350505050565b60006040820190508181036000830152610f6f8185610d41565b9050610f7e6020830184610e78565b9392505050565b60006020820190508181036000830152610f9e81610d7a565b9050919050565b60006020820190508181036000830152610fbe81610d9d565b9050919050565b60006020820190508181036000830152610fde81610dc0565b9050919050565b6000602082019050610ffa6000830184610e78565b92915050565b60006060820190506110156000830186610e78565b81810360208301526110278185610d41565b90506110366040830184610cf9565b949350505050565b6000611048611059565b90506110548282611217565b919050565b6000604051905090565b600067ffffffffffffffff82111561107e5761107d611306565b5b61108782611335565b9050602081019050919050565b6000819050602082019050919050565b600081519050919050565b600081519050919050565b6000602082019050919050565b600082825260208201905092915050565b600081905092915050565b600082825260208201905092915050565b600082825260208201905092915050565b600061111082611199565b915061111b83611199565b9250827fffffffffffffffffffffffffffffffffffffffffffffffffffffffffffffffff038211156111505761114f611279565b5b828201905092915050565b600061116682611179565b9050919050565b60008115159050919050565b600073ffffffffffffffffffffffffffffffffffffffff82169050919050565b6000819050919050565b82818337600083830152505050565b60005b838110156111d05780820151818401526020810190506111b5565b838111156111df576000848401525b50505050565b600060028204905060018216806111fd57607f821691505b60208210811415611211576112106112d7565b5b50919050565b61122082611335565b810181811067ffffffffffffffff8211171561123f5761123e611306565b5b80604052505050565b600061125382611199565b915061125e83611199565b92508261126e5761126d6112a8565b5b828206905092915050565b7f4e487b7100000000000000000000000000000000000000000000000000000000600052601160045260246000fd5b7f4e487b7100000000000000000000000000000000000000000000000000000000600052601260045260246000fd5b7f4e487b7100000000000000000000000000000000000000000000000000000000600052602260045260246000fd5b7f4e487b7100000000000000000000000000000000000000000000000000000000600052604160045260246000fd5b6000601f19601f8301169050919050565b7f547279696e6720746f207769746864726177206d6f7265206d6f6e657920746860008201527f616e2074686520636f6e7472616374206861732e000000000000000000000000602082015250565b7f4661696c656420746f207769746864726177206d6f6e65792066726f6d20636f60008201527f6e74726163742e00000000000000000000000000000000000000000000000000602082015250565b7f5761697420666f72203130206d696e7574657300000000000000000000000000600082015250565b50565b6114198161115b565b811461142457600080fd5b5056fea26469706673582212200b23c9a4226870da33a8a6a434a5131a94b4418c76d2f544ee148a3f2365767764736f6c634300080400335765206861766520636f6e7374727563746564206120736d61727420636f6e747261637421",
  "linkReferences": {},
  "deployedLinkReferences": {}
}